:020000040800F2
:10000000D08E002095020008FBEF0008199D000823
:10001000F9EF0008E52300086D5A01080000000010
:10002000000000000000000000000000D52A0108C8
:10003000EF3E000800000000910E0108213C01087D
:10004000AF020008AF020008AF020008AF020008CC
:10005000AF020008AF020008AF020008AF020008BC
:10006000AF020008AF020008AF020008AF020008AC
:10007000AF020008AF020008AF020008AF0200089C
:10008000AF020008AF020008AF020008AF0200088C
:10009000AF020008AF020008AF020008AF0200087C
:1000A000AF020008AF020008AF020008AF0200086C
:1000B000AF0200083141010871430108AF02000896
:1000C000AF020008AF020008AF020008AF0200084C
:1000D000AF020008FD540108AF02000851560108A4
:1000E000AF020008AF020008AF020008AF0200082C
:1000F000AF020008AF020008AF020008AF0200081C
:10010000AF020008AF020008AF020008AF0200080B
:10011000AF020008614B0108F5440108AF02000876
:10012000113D0008AF020008AF020008AF0200084E
:10013000AF020008AF020008AF020008AF020008DB
:10014000AF020008AF020008AF02000869FA000819
:10015000AF020008AF020008AF020008AF020008BB
:10016000AF020008AF020008AF020008AF020008AB
:10017000AF020008AF020008AF020008AF0200089B
:10018000AF020008AF02000800F002F800F072F8B9
:100190000AA090E8000C82448344AAF10107DA45E2
:1001A00001D100F067F8AFF2090EBAE80F0013F0C2
:1001B000010F18BFFB1A43F0010318470838040069
:1001C000283804000A444FF0000C10F8013B13F0EB
:1001D000070408BF10F8014B1D1108BF10F8015BA0
:1001E000641E05D010F8016B641E01F8016BF9D193
:1001F00013F0080F1EBF10F8014BAD1C0C1B09D1EA
:100200006D1E58BF01F801CBFAD505E014F8016B5B
:1002100001F8016B6D1EF9D59142D6D370470000ED
:100220000023002400250026103A28BF78C1FBD8FF
:10023000520728BF30C148BF0B607047662926F0BF
:10024000B287642900F08480002070471FB526F033
:10025000A0FF00F0CFFD04000020002126F044FAAA
:10026000401C60600020002126F028FAE0601FBDDD
:1002700010B510BD00F00AFF1146FFF7E7FF25F0AB
:100280000FFE00F036FF03B4FFF7F2FF03BC00F0EF
:1002900077FF00000948804709480047FEE7FEE76E
:1002A000FEE7FEE7FEE7FEE7FEE7FEE7FEE7FEE726
:1002B00004480549054A064B70470000E93C01081F
:1002C00089010008D0880020D08E0020D08A00202C
:1002D000D08A00200FB41CB5074B06AA7B446946A0
:1002E0000090059800F0CBFC0020694600F0DAFC95
:1002F0001CBC5DF814FB0000C509000070B5044685
:1003000085690068C10601D5302600E02026C007B7
:1003100008D070BDD4E9012130469047206A00F131
:10032000010020626D1EF5D570BD70B5044685696B
:100330000068C00708D170BDD4E901212020904792
:10034000206A00F1010020626D1EF5D570BD00002D
:100350002DE9F0410746002510687529394616A495
:1003600011D0AFF30080002803DAC0F1000013A41D
:1003700007E039688A0701D511A402E0490704D5CE
:1003800010A4012501E0AFF3008000210A2307F14A
:10039000240607E0B0FBF3F203FB12003030705488
:1003A0001046491C0028F5D12B4622463846BDE8A8
:1003B000F04100F0F3B90000000000002D00000043
:1003C0002B000000200000002DE9F05F0446894664
:1003D0004FF0000ADFF828B1FB44C0F820A0204607
:1003E000E168884700287CD0252806D0D4E901217F
:1003F0009047206A401C2062F1E700255F462046B6
:10040000E16888472028064608DB312E06D207EB34
:10041000060010F8200C08B10543F0E7A80701D545
:1004200025F00405C4F81CA00027C4F818A02A2E43
:1004300009D0304625F0E2FB38B304EB8708303EA4
:10044000C8F8186019E059F8041B204604EB87022D
:100450009161E1688847012F064618D1E0690028BC
:1004600020DA25F020051DE0D8F8180000EB800008
:1004700006EB40003038C8F818002046E16888478D
:10048000064625F0BBFB0028EED1012F0AD02E2E08
:1004900008D12046E16888477F1C0646022F45F0B8
:1004A0002005C4DBA069002803DA404245F00105BD
:1004B000A061E80701D025F0100596B1A6F1410032
:1004C000192802D8203645F400654A4631462046B0
:1004D00025604D46FFF7B2FE60B1012807D0ED1D43
:1004E00000E009E025F0070000F1080977E705F1D1
:1004F000040974E7304679E7206ABDE8F09F000000
:100500001435040070B5064600F044F90468054649
:1005100030460A22002100F0CAFB2C6070BD40EA80
:100520000103024630B59B0710D14FF0013400E0C3
:1005300008C208C91D1B9D4315EAC41FF8D013F05B
:10054000FF0102F8011B0DD01B0AF8E711F8013B6F
:10055000002B02F8013B05D011F8013B002B02F8FB
:10056000013BF3D130BD10B5431C02E010F8011B74
:1005700071B18107FAD14FF0013202C88C1A8C4355
:1005800014EAC211F9D0C01A0A0603D0C01E10BD69
:10059000C01A10BD0A0401D0801E10BD0902FCD093
:1005A000401E10BD421E12F8013F002BFBD111F876
:1005B000013B002B02F8013BF9D17047032A40F2BE
:1005C000308010F0030C00F0158011F8013BBCF1F5
:1005D000020F624498BF11F801CB00F8013B38BF0D
:1005E00011F8013BA2F1040298BF00F801CB38BF1B
:1005F00000F8013B11F0030300F06780083AC0F0F7
:10060000088051F8043B083A51F804CBA0E80810E0
:10061000F5E7121D5CBF51F8043B40F8043BAFF313
:100620000080D20724BF11F8013B11F801CB48BF6D
:1006300011F8012B24BF00F8013B00F801CB48BFA3
:1006400000F8012B7047431A28BF9A427FF6B6AFD5
:10065000032A1044114440F2268010F0030F1EBFFD
:1006600011F8013D521E00F8013D10F0030F7FF418
:10067000F6AF11F0030300F06583083AC0F00B8079
:1006800051F8043D083A51F804CD40F8043D40F8D3
:1006900004CDFFF7F3BF121D5CBF51F8043D40F8D5
:1006A000043DAFF30080D20724BF11F8013D11F8DB
:1006B00001CD48BF11F8012C24BF00F8013D00F81E
:1006C00001CD48BF00F8012C704710B5203AC0F0AA
:1006D0000B80B1E81850203AA0E81850B1E8185043
:1006E000A0E81850BFF4F5AF5FEA027C24BFB1E880
:1006F0001850A0E8185044BF18C918C0BDE81040F1
:100700005FEA827C24BF51F8043B40F8043B08BFF9
:100710007047D20728BF31F8023B48BF11F8012BC0
:1007200028BF20F8023B48BF00F8012B704702F0B9
:10073000FF0343EA032242EA024200F02FBB4FF0DC
:10074000000200B5134694469646203922BFA0E821
:100750000C50A0E80C50B1F12001BFF4F7AF09072D
:1007600028BFA0E80C5048BF0CC05DF804EB89001E
:1007700028BF40F8042B08BF704748BF20F8022B61
:1007800011F0804F18BF00F8012B70477047704779
:1007900070470000004870476C8800202DE9F04742
:1007A0000D4604469246994600F1240801688806E1
:1007B00004D5E06921F01001216000E00120A84289
:1007C00002DDA0EB050700E00027A16907EB0502A9
:1007D00002EB0900A1EB0000A0612068C00602D472
:1007E0002046FFF78BFD002608E0D4E901211AF826
:1007F00006009047206A401C761C20624E45F4DBC0
:100800002068C0060AD52046FFF778FD06E0D4E947
:10081000012130209047206A401C2062381EA7F139
:100820000107F4DC07E0D4E9012118F8050090473E
:10083000206A401C2062281EA5F10105F3DC204639
:10084000FFF773FD2068000602D50220BDE8F0879F
:100850000120FBE770472DE9FF4F0C461E464FF085
:10086000FF378BB0D2E90001DDF860800A908A463C
:10087000C1F30A5505B93D46002108464FF0000076
:10088000BAF1000F00F4400005DA00EB80004FF4ED
:10089000400101EA50004FEA9059B9F1010F00DD23
:1008A000B9460A9850EA4A000FD044F61050A5F213
:1008B000FF3545432F14B8F1000F1FD07542291E94
:1008C0001FDD4846C9F100021CE0B8F1010F4FF0EE
:1008D000000001D1F24307E0302101E02154401C27
:1008E000B042FBDB30460022002121540B99C1F8B5
:1008F0000880C1E900200FB0BDE8F08FBD1B6D1C62
:10090000DDE74A4600DA694206A800F04DFB06AB77
:1009100007CB03AB07C350460A9900F038FC8DE8BB
:100920000700A0F500501F3800900398002D09DD46
:1009300042F21F014A46084403A90390684600F0AA
:1009400097FE08E0A0F500504A461F3803A903901F
:10095000684600F0A1FE8DE807000004000C03D0FB
:100960004FF0FF30410800E01046B8F1000F03D00F
:100970000022009215461FE0751E06D400F03EFAD4
:1009800002F1300262556D1EF8D5B34601220843CC
:1009900002D000227F1C04E02078302801D1002200
:1009A0007F1E002A099786D01DE0112D07DA00F07E
:1009B00025FA303262556D1C50EA0102F5D1084328
:1009C0000FD10021681E05E0235C625C6354491C62
:1009D0002254401E8142F7DBAB46A81B401E099003
:1009E00001E0009848B1002004F80B000B98099A28
:1009F000C0F80880C0E9002B7DE711264FF0000801
:100A000059E72DE9F04F88460446D21D22F0070130
:100A100091B0D1E90001CDE90A011FF0B7F9024612
:100A20000B98C00F01D02D2007E02068810701D569
:100A30002B2002E0202101EAC000032A099001D006
:100A4000072A05DB03464146204600F01DFA0EE169
:100A50002068800601D5E06900E00620B8F1650F46
:100A6000814606D0B8F1660F18D0B8F1670F72D181
:100A700032E00020B9F1110F009001DB112301E0F9
:100A800009F101030AAA01A90CA8FFF7E4FEDDE9B8
:100A90000C70002609F10105834648E001204B4611
:100AA00000904FF000470AAA01A90CA8FFF7D3FE57
:100AB000DDE90C050E990026AB4619B909F10101D3
:100AC00000EB0105B9EB050003D4C0F1FF3609F1D5
:100AD0000105A5EB09002BE0B9F1010F01DA4FF098
:100AE00001090020B9F1110F0090484601DD1123E2
:100AF00000E003460AAA01A90CA8FFF7ACFEDDE955
:100B00000C704D4600268346206800070AD4AB458A
:100B100000DA5D4601A8012D04DD411911F8011C20
:100B2000302907D04F4502DA17F1040F04DA01200B
:100B3000824610E06D1EEEE7002F02DCED1B3E4406
:100B400003E0781CA84200DD0546A7EB060000F193
:100B5000010A4FF000472068000703D4AA4501DBD3
:100B60004FF0FF3A0021B7F1004F0DF143088DF827
:100B7000431022D002202B23002F01DA7F422D23A5
:100B80000A22011EA0F1010000DC4FB197FBF2F137
:100B900002FB117C0F460CF1300C08F801CDF0E798
:100BA000A8F1010003702168090501D5452100E085
:100BB0006521A0F1010800F8011C09980FA9A1EB1B
:100BC000080707F1070700B1012000EB050101EB61
:100BD000EA70A1693844A1EB0000A0F10100A06116
:100BE0002068C00602D42046FFF788FB099830B180
:100BF000D4E901219047206A00F1010020622068B9
:100C0000C00620D52046FFF779FB1CE0002E04DB50
:100C1000B34502DD01A8805D00E03020D4E9012168
:100C20009047206A761C401CBAF1010A20620AD162
:100C300000F0E0F8C0680168405CD4E90121904709
:100C4000206A401C2062281EA5F10105DEDC07E0B9
:100C5000D4E9012118F8010B9047206A401C20625A
:100C6000381EA7F10107F3DC2046FFF75EFB0220E8
:100C700011B041E601694A1C02610878704700B56D
:100C80008FB0CDE901310021059105497944CDE9C5
:100C9000031011466846FFF797FB0FB000BD000038
:100CA000E5FFFFFF0A6802F8010B0A6070472DE9B3
:100CB000F0470F46914680460446002614F8015B33
:100CC0002DB100F08FF80068405DC007F6D12B2DE4
:100CD00002D02D2D18D0641E4A463946204600F019
:100CE00013F927B13968A14201D1C7F800804FF04C
:100CF000020471050BD54042002803DDFFF74AFDD1
:100D00000460A007BDE8F08746F48066E4E70028A9
:100D1000F8DAFFF73FFD04606FF00040F2E7431A96
:100D200028BF9A427FF6D1AC104410F0030F114453
:100D30001EBF11F8013D521E00F8013D10F0030FD7
:100D40007FF4F6AF103AC0F00A8010B531E91850C0
:100D5000103A20E91850BFF4F9AFBDE8104053072E
:100D600024BF31E9081020E9081044BF51F8043DC0
:100D700040F8043D12F0030F08BF7047D20728BFA8
:100D800031F8023D48BF11F8012C28BF20F8023D80
:100D900048BF00F8012C70474FF000020429C0F052
:100DA000128010F0030C3FF4CCACCCF1040CBCF17D
:100DB000020F18BF00F8012BA8BF20F8022BA1EBEF
:100DC0000C01FFF7BEBC5FEAC17C24BF00F8012B19
:100DD00000F8012B48BF00F8012B7047004870470E
:100DE0006C88002010B500F005F8001D10BD00BF94
:100DF000F9580200004870478C88002030B5B0F1E7
:100E00000A024FEA900E71F100034EEA817EB0EBC8
:100E10000E0061EB91014FEA101E4EEA017E10EBCD
:100E20000E0041EB11114FEA102E4EEA016E10EB4D
:100E30000E0041EB11214FEA104E4EEA014E10EB2D
:100E40000E0041EB1141401841F100014FEAD00082
:100E500040EA41704FEAD10110EB80054FEA81046E
:100E600044EA907444EB01046D1944EB0404521BF2
:100E7000A3414FF0000348BF0A3200D530BD401CEB
:100E800041F1000130BD00002DE9F04104461F464C
:100E900003260168072A01F4006004DB08B116A5E7
:100EA00005E016A503E008B115A500E015A521F0A1
:100EB00010002060A069C01EA0610FB1401EA0619B
:100EC0002046FFF71BFA4FB1D4E90121384690477D
:100ED000206A401C2062C01C206206E0206AFAE7FB
:100EE000D4E9012115F8010B9047761EF8D220466F
:100EF000FFF71BFABDE8F0814E414E006E616E00B7
:100F0000494E4600696E66002DE9F05F82468B46C9
:100F1000154600270AF10104B9460078302801D0AF
:100F20009DB113E014F8010B0127782803D058284D
:100F300001D045B10AE00DB1102D07D1002714F8FA
:100F4000010B102502E0082500E00A250026B04626
:100F50000EE005FB080005FB06F101271FFA80F8EB
:100F600001EB1046B6F5803F00D3B94614F8010BEB
:100F7000294600F0B0F80028EBDABBF1000F05D0ED
:100F80000FB1641E00E05446CBF80040B9F1000FE9
:100F900006D0FFF7FFFB02210160C81EBDE8F09FED
:100FA00048EA0640FAE700002DE9F0478146164678
:100FB0008AB035487844D0E9002380680092CDE9B2
:100FC0000130314878440C38D0E90223006903929B
:100FD0004FF03702CDE9043041F69B30014491FBDC
:100FE000F2F0A0F1800502FB10141B3C02D5644214
:100FF000012000E00020DFF890A080460027FA449E
:10100000AAF1C60A0DE0E00709D03246684607EBB0
:1010100047010AEB810100F03FFB8DE807006410F7
:101020007F1C002CEFD1184F7F44B43F17E0E80736
:1010300013D007EB04100DF1180A90E80E00AAE88F
:101040000E00C068F04201D198190890324606A9F6
:1010500003A800F021FB03AB07C36D10641C002D37
:10106000E5D132466946B8F1000F03A802D000F07E
:10107000FFFA01E000F010FBC9E90001C9F80820FF
:101080000AB0BDE8F0870000C82904007546FFF7E4
:10109000A5FEAE4605006946534620F0070085468A
:1010A00018B020B5FFF704F9BDE820404FF0000666
:1010B0004FF000074FF000084FF0000B21F0070140
:1010C000AC46ACE8C009ACE8C009ACE8C009ACE883
:1010D000C0098D4670473A2800D2303820F02002EF
:1010E000412A01D3A2F13700884201D34FF0FF30EB
:1010F00070470446AFF300802046FFF7C4F80000B5
:101100004FF0013C50F8042B51F8043B9A4221D196
:10111000A2EB0C03934313EACC1317D150F8042B22
:1011200051F8043B9A4215D1A2EB0C03934313EA06
:10113000CC130BD150F8042B51F8043B9A4209D13F
:10114000A2EB0C03934313EACC13DBD04FF0000067
:10115000704700BFD01A01BAB1FA81F101F018014D
:1011600022FA01F0CB40C1F12001DBB2C0B2C01ABB
:101170002CFA01F3D11A914311EAC311E6D1704759
:1011800001491820ABBEFEE72600020070475FEA67
:10119000400C08BF91F0000F4FEA8C234FEAC122A8
:1011A00043EA51514FEA1C5018BF00F5F0404FEA96
:1011B000300018BF41F000415FEA6C5C00F029800C
:1011C000BCF1FF3F08BF40F080407047130C06BFE2
:1011D00012044FF0100C4FF0000C130E04BF12025B
:1011E0000CF1080C130F04BF12010CF1040C930F47
:1011F00004BF92000CF1020CD30F04BF52000CF19B
:10120000010C11464FF00002A0F11F00A0EB0C00F2
:10121000704711F0004F08BF704731F000413FF4B4
:10122000D5AF0B0C06BF09044FF0100C4FF0000CAB
:101230000B0E04BF09020CF1080C0B0F04BF0901CF
:101240000CF1040C8B0F04BF89000CF1020CCB0FC6
:1012500004BF49000CF1010CCCF12003A0EB0C0001
:1012600022FA03F302FA0CF241EA030100F1010051
:10127000704720F07F4C80EA030023F07F47ACEBFF
:10128000070303F57C5300F0004003F1FF032DE951
:1012900080494FEA154B09B44FEA144325EA0B4E37
:1012A00024EA03480FF2042606EB132749083E7888
:1012B0005FEA320203FB0667C7F5000707FB06F685
:1012C0004FEA54374FEAD64606F1020607FB066C92
:1012D000CCF1005C4FEA1C472CEA074C07FB06F4F4
:1012E0000CFB06F504EB15464FEA961634BF0020BA
:1012F0004FF000404FEAD13706FB07FC4FEA1C4C89
:101300000CFB0BF7D21B03FB0CF761EB07010CFB8B
:101310000EF7B0EB074072EB17420CFB08F734BF37
:10132000A2EB0742B2EB074261EB17414FEA0C44D4
:101330004FEA910706FB07FC4FEA1C4C0CFB0BF72E
:10134000B0EBC74072EB573203FB0CF734BFA2EB94
:10135000C742B2EBC74261EB57310CFB0EF7B0EB63
:10136000C70072EB57720CFB08F734BFA2EBC70241
:10137000B2EBC70261EB5771039F4FEA816141EA0B
:10138000921104EBCC044FEAD1374FEA826206FB9C
:1013900007FC42EA90124FEA80604FEA1C4C0CFBBB
:1013A0000BF7D21B03FB0CF761EB07010CFB0EF7ED
:1013B000B0EB074072EB17420CFB08F734BFA2EB0F
:1013C0000742B2EB074261EB17414FEA8C554FEAF7
:1013D000910704EB9C2406FB07FC4FEA1C4C0CFB1A
:1013E0000BF7B0EBC74072EB573203FB0CF734BF7F
:1013F000A2EBC742B2EBC74261EB57310CFB0EF7D1
:10140000B0EBC70072EB57720CFB08F734BFA2EBCE
:10141000C702B2EBC70261EB577115EB4C254FEADF
:10142000816141EA92114FEA82624FEAD13742EA82
:10143000901206FB07FC44F100044FEA80604FEA7B
:101440001C4C0CFB0BF7D21B03FB0CF761EB0701E9
:101450000CFB0EF7B0EB074072EB17420CFB08F7E2
:1014600034BFA2EB0742B2EB074261EB174115EB29
:101470001C154FEA813141EA92414FEA823242EA39
:1014800090424FEA80304FEA0C7644F1000448EA7B
:1014900003434EEA0B484FF0000EB2EB080C71EB21
:1014A000030724BF624639464EEB0E0E4FF0000B89
:1014B0000018524149414BEB0B0BB2EB080C71EB9E
:1014C00003077BF1000B24BF624639464EEB0E0E3C
:1014D0004FF0000B0018524149414BEB0B0BB2EBA4
:1014E000080C71EB03077BF1000B24BF6246394601
:1014F0004EEB0E0E51EA020718BF46F0010616EB3E
:101500000E7655F1000254F1000103D5BDE88901C2
:10151000BDE80088BDE88901BDE80048B619524120
:1015200041EB0101A3F10103704780807F7E7D7C48
:101530007B7A7978777676757473727171706F6E65
:101540006E6D6C6C6B6A6A69686867666665646410
:10155000636362616160605F5F5E5E5D5D5C5C5B9A
:101560005B5A5A5959585857575656555555545409
:10157000535352525251515050504F4F4F4E4E4D67
:101580004D4D4C4C4C4B4B4B4A4A4A4949494848B3
:1015900048474747474646464545454444444443F3
:1015A00043434342424242414141002B26D477000B
:1015B00021D01CB54FEA370703B44FF010004FF0AD
:1015C00010014FF000000FBCBDE810400BF1010B03
:1015D000BBF1010F08BF5FEA170722BF12F101023A
:1015E00011F101014FF0004143F1000300F0004010
:1015F00043EA00007047F9D35708DAE746EA06469F
:1016000013F1400F4FEA16461FDD13F1200FDFBF25
:1016100016430A46002120335B42C8D0C3F120079D
:1016200046EA064602FA07F74FEA164646EA070672
:10163000C3F1200722FA03F201FA07F721FA03F1B6
:101640004FF0000342EA0702B1E746EA020646EA23
:1016500006464FEA164646EA0106BCBF46EA06467B
:10166000360C4FF000034FF000024FF000019EE7F0
:101670002DE9C048934630B491E8380007C831EAF4
:10168000400C48BF34EA430C03D5FFF7F2FDFFF7E7
:101690008CFFF0BCBDE800882DE9C048934630B40B
:1016A00091E8380007C810F0804F08BF13F0804F52
:1016B00003D100F005F8FFF778FFF0BCBDE8008823
:1016C00020F07F4780EA030023F07F4C07EB0C03F8
:1016D000A3F57C5300F00040A3F1FE0392F0000F4D
:1016E00000F0B38095F0000F00F077802DE90149FC
:1016F0004FEA11404FEA144621EA004800FB06FC7D
:1017000024EA064708FB06F607FB08F800FB07F784
:1017100018EB06484CEB164C4FEA124B18EB0748F7
:101720004FEA15464CEB174022EA0B4E0BFB06FC2A
:1017300025EA06470EFB06F607FB0EFE0BFB07F736
:101740001EEB064E4CEB164C4FF000061EEB074E00
:101750004CEB174B18EB0B0840F1000018EB0E0B8D
:1017600058EB000840F100008F1A4FF000013CBF19
:10177000C943661B14BFB5EB040C00213CBFC94331
:10178000F61B4FEA17444EEA8E0E27EA04454FEA4D
:101790001C4704FB07622CEA074C05FB07F70CFB10
:1017A00005F604FB0CFC16EB074642EB174216EB62
:1017B0000C4642EB1C421BEB060658EB0202414171
:1017C00046EA9E0601D5BDE80189B619524141EBB2
:1017D0000101A3F10103BDE801894FEA14454FEA75
:1017E000114724EA054621EA074C05FB07F406FBEE
:1017F00007F70CFB06F105FB0CFC11EB074144EB72
:1018000017444FEA124711EB0C4144EB1C4422EA07
:10181000074C05FB07F206FB07F70CFB06F605FB7A
:101820000CFC16EB074642EB174216EB0C4642EB5C
:101830001C456A1854F1000148BF7047B61952415F
:1018400041EB0101A3F10103704795F0000F37D080
:101850004FEA11424FEA144721EA024624EA074CB4
:1018600002FB07F106FB07F70CFB06F402FB0CFC7E
:1018700014EB074441EB17414FEA154714EB0C44B6
:1018800041EB1C4125EA074C02FB07F506FB07F775
:101890000CFB06F602FB0CFC16EB074645EB174566
:1018A00016EB0C4645EB1C42121951F1000148BFE2
:1018B0007047B619524141EB0101A3F10103704792
:1018C0004FEA14454FEA114724EA054621EA074C3E
:1018D00005FB07F106FB07F70CFB06F24FF00006CD
:1018E00005FB0CFC12EB074241EB174112EB0C42DB
:1018F00051EB1C4148BF7047921841EB0101A3F125
:10190000010370474FF47A7001E0401E80B2002856
:10191000FBD1704740F6B83001E0401E80B200288D
:10192000FBD170472DE9FC4102268DF805600124AA
:101930008DF8044000258DF80650402000901A4F85
:101940006946384604F0AEFA8DF805608DF804401B
:101950008DF80650082000906946384604F0A2FA37
:101960008DF805608DF804408DF806502020009019
:101970006946384604F096FA8DF804508DF8074011
:10198000102000906946384604F08CFA4021384611
:1019900004F0DEFA2021384604F0DAFA082138464D
:1019A00004F0D6FABDE8FC81000402402DE9F041C4
:1019B0000024384D0CE02146012011F03DF825F8B7
:1019C0001400FFF7A7FFE888AF882E89641CE4B2F3
:1019D000082CF0D3304C61784A1C6270DFF8B48078
:1019E00008F1240828F8110060780025082800D1A3
:1019F000657028480821243000F0D8FC002102201E
:101A000004E038F810201144401CC0B20628F8D376
:101A1000880822490880A078411CA170DFF87480F2
:101A200008F1380828F81070A078082800D1A570AF
:101A300018480821383000F0B9FC0021022004E0E9
:101A400038F810201144401CC0B20628F8D388088A
:101A5000134908602078411C21700E4F103727F879
:101A600010602078082800D125700A48082110301D
:101A700000F09CFC0021022004E037F81020114403
:101A8000401CC0B20628F8D3880806490860BDE8A3
:101A9000F0810000D40D00201D01002080000020F6
:101AA00088000020840000202DE9F0419CB0012135
:101AB0000F0238460FF090FA012188050FF068FAFE
:101AC0000426019603258DF8085000248DF80B405C
:101AD000DFF8108101A9404604F0E4F908200190E4
:101AE0008DF808508DF80B4001A9404604F0DAF952
:101AF000402001908DF808508DF80B4001A9404618
:101B000004F0D0F901968DF808508DF80B4001A92A
:101B1000354804F0C7F9129413941494159412A83C
:101B200000F04AF9169401258DF85C508DF85D504F
:101B300019941A948DF86C602C4E16A9304600F05A
:101B400069F9042301220221304600F089F90023BB
:101B500002220321304600F083F9002303220621EC
:101B6000304600F07DF9062304220C21304600F0B7
:101B700077F90121304600F013F9304600F0AEF954
:101B80000121304600F03BF9039418484C30049092
:101B9000174805900694C82007900894A802099059
:101BA00040000A9080000B900C9700010D900E945D
:101BB0000F95109411940F4C03A9204602F0F4F8ED
:101BC0000121204602F0CCF801221021204602F02B
:101BD000D2F802F087F80121304600F005F91CB078
:101BE000BDE8F081000002400008024000200140F2
:101BF00006090020106402402DE9F0430020654CE6
:101C0000654A04F5C87504F5FA7C04F52F7604F5E9
:101C1000167330E0810709D000F0030102290DD0CE
:101C2000012915D0C14389071AD022E034F8108069
:101C300011784F1C177025F811801AE034F81070D5
:101C4000517801F1010882F8018023F8117010E049
:101C500034F81080D1784F1CD7702CF8118008E030
:101C600034F81070917801F1010882F8028026F8AA
:101C70001170401C80B2C828CCD30024147054705A
:101C80009470D4700021002004E035F810703944BD
:101C9000401CC0B23228F8D31079DFF80081132736
:101CA0003225142806D2B1FBF5F0117928F811007D
:101CB00000210EE00021012004E038F81090494492
:101CC000401CC0B21328F8D3B1FBF7F050810021BB
:101CD00014711079401C1071002004E03CF8108051
:101CE0004144401CC0B23228F8D35079DFF8ACC070
:101CF00014280CF1280C06D2B1FBF5F051792CF820
:101D0000110000210EE00021012004E03CF81080C9
:101D10004144401CC0B21328F8D3B1FBF7F09081C6
:101D2000002154715079401C5071002004E036F8B5
:101D300010C06144401CC0B23228F8D39079174ECD
:101D40005036142806D2B1FBF5F0917926F811002F
:101D500000210EE00021012004E036F810C06144AB
:101D6000401CC0B21328F8D3B1FBF7F0D08100219A
:101D700094719079401C9071002004E033F8104079
:101D80002144401CC0B23228F8D3B1FBF5F01081D9
:101D9000BDE8F0830609002070000020260C00201A
:101DA00021B1816841F0010181607047816821F0B3
:101DB000010181607047000010B5094C2268094993
:101DC00002EA0102D0E9001341EA0301D0E902303E
:101DD00043EA000341EA030141EA0201216010BD28
:101DE00004230140E030FCFF21B1816841F480719F
:101DF00081607047816821F480718160704721B1F2
:101E0000816841F4007181607047816821F400713C
:101E10008160704730B542680F4B1A400C790B68EF
:101E200042EA04221343436083680C4A1340D1E919
:101E3000034222434D798C6844EA450422431A4305
:101E40008260C26A22F47002097D491EC9B242EA68
:101E50000151C16230BD0000FFFEFFFCFDF7FFC075
:101E600070B5072609290ED9D0F80CC0A1F10A04D3
:101E700004EB4404A6402CEA060CA3404CEA030CF5
:101E8000C0F80CC007E0056901EB4104A640B5436A
:101E9000A3401D4305611F23072A09D2446B521E2C
:101EA00002EB820293409C4391400C43446370BD1B
:101EB0000D2A09D2046BD21F02EB820293409C438D
:101EC00091400C43046370BDC46A0D3A02EB820278
:101ED00093409C4391400C43C46270BD816841F0C3
:101EE000804181607047002800DC4042704700005C
:101EF00010B50C480068400612D40B4C206841070E
:101F00000ED5020609484FF4007103D4BDE8104015
:101F100004F01EB804F01AF8206820F004002060D5
:101F200010BD0000400000203800002000080240E2
:101F30000549086840F00400044B00221A8020F094
:101F400080000860704700003800002094000020E6
:101F500038B5456804460146284613F0ABFD002815
:101F60002AD02068304A0F2819D006DC0B2824D04C
:101F70000C2810D00E2851D12FE0112802D028288B
:101F80004CD145E09268002A16D02146284601B07F
:101F9000BDE830401047214628465268F7E72846FA
:101FA00004F01EFF0090406E0468684604F062FF73
:101FB000002C01D02846A04738BD284604F010FF69
:101FC0000090683004F074FE009803216C3004F037
:101FD00077FE684604F04EFF20E0E1684868096833
:101FE0000D2902D0202913D105E0002810DD284654
:101FF0001AF0E4FC06E0002804DD2846BDE838407D
:102000001AF0DCBC2846BDE8384002211AF0ECBCCE
:10201000E06818B90021284600F097F92046BDE88D
:10202000384014F0BBB9000070020020F0B504463F
:1020300085B08069B4F90850668A0027CDE9026549
:10204000CDE900170490B4F90C00B4F91060C11880
:10205000B4F90A00B4F90E50104433462A4600F091
:1020600007F80546616800F079F905B02846F0BD2B
:10207000F0B585B00C46DDE90D514C31DFF850C0AC
:10208000DDE90A67CDE902C12146CDE9006714F018
:10209000D5F8040018D004F0A3FE102229460490BD
:1020A00013F02CFF049830220A493430FEF70DFB60
:1020B000084D04990C3D2868486604A804F0DAFE2F
:1020C000286841682046884705B02046F0BD0000DA
:1020D000511F00087C020020F0B5044680688B493F
:1020E00089B051F82050606800287DD0052804D0C0
:1020F00006287AD0122879D1AEE0E86900284FD0BE
:1021000095E80E008DE80F0004F110010FC907F0EB
:10211000D9F9002655F8260006F03EFAA169E869CB
:102120000A1A216901446069304405F0DBFBA169AA
:10213000E8690A1A21690144E069801B05F0D2FBB5
:10214000E169E8690A1A616901442069304405F0CF
:1021500069FCE169E8690A1A61690144A069801BA8
:1021600005F060FC761C022ED4DBA86806F014FA99
:10217000E069E9696669431A20694218521E3144D0
:10218000801C05F0B9FCE169E869A2690B1A616974
:102190000144101A401C921E05F0AEFCEE6913E0DB
:1021A0005FF0000655F8260006F0F6F9E069831B9B
:1021B000A069821B606981192069304405F0F4FB35
:1021C000761C022EEEDB0226D5E90301CDE90001E3
:1021D0006169E06908444310A069891C821B206979
:1021E000304405F027FB02E089E012E08AE0D5E9FF
:1021F0000501CDE90001E36960690121184401EBA3
:102200006001A0699B1E821B2069304405F012FB0F
:1022100078E0206804F0E4FD0490206815F0EEF802
:1022200040B1A06808B1002008E00498006F28B110
:10223000012003E00498406F00B10220049901EBF3
:102240008000C56E04A804F015FE00231A46284637
:10225000216805F0A1F855E0206804F0C1FD049064
:10226000866EEEB3B0F95C70A168D1B3032942D099
:102270005FF0000100EB8101406D0C6C06F096F9F7
:10228000204606F089F905A805F086FCBDF8141073
:10229000A88B0144ADF81410BDF81810081AADF859
:1022A0001800BDF81600801CADF81600BDF81A0025
:1022B000801EADF81A0004985E30B0F90220B0F923
:1022C000001005A806F0C6F804A804F0D3FD02200B
:1022D00006F0ACF9304604F083FD3A4605A901E06A
:1022E0000BE006E0079005F04FF907A804F0C2FDE7
:1022F00008E00121BEE70221BCE704A8F6E7206858
:1023000014F040FD09B00020F0BD000054020408A4
:10231000044A0349116004494A6A486210467047FA
:10232000AC020020700200207C02002038B50D466F
:10233000040009D004F054FD00904565684604F09F
:1023400099FD204614F021FB38BD4FF4807200291E
:10235000114601D013F038BC13F089BB2DE9FF41C1
:102360000E4605004FF001041CD004F039FD019029
:10237000876E01A8009704F07DFD3146684607F09E
:1023800081FB78B100980024B84208D0284604F0B8
:1023900027FD01900099816601A804F06BFD284695
:1023A00014F0F3FA04B02046BDE8F08130B5002304
:1023B00015E01A460FE030F8124030F81350AC42E6
:1023C00007D930F813C030F8124020F8134020F835
:1023D00012C0521CD2B28A42EDD35B1CDBB28B42DC
:1023E000E7D330BDFEE700002DE9F05F7C4D297892
:1023F0007C486FF0704619393711826940F66F04D6
:102400004FF4076840F6770940F6780A40F6710BFA
:102410000C2925D2DFE801F0062645642424242473
:1024200083A324C481462146104614F0C5F804460F
:102430003146204611F020FD3946204611F06EFD50
:102440004146D9F8180014F0B7F80446664920460A
:1024500011F012FD0021204611F060FD1A202870B5
:10246000BDE8F09F41468046104614F0A5F80446AA
:102470003146204611F000FD3946204611F04EFD50
:102480004946D8F8180014F097F8044656492046F3
:1024900011F0F2FC0021204611F040FD1B202870B5
:1024A000DEE780464946104614F086F80446314679
:1024B000204611F0E1FC3946204611F02FFD51462F
:1024C000D8F8180014F078F804464749204611F06F
:1024D000D3FC0021204611F021FD1C202870BFE70D
:1024E00080465146104614F067F8044631462046AF
:1024F00011F0C2FC3946204611F010FD5946D8F8BB
:10250000180014F059F804463749204611F0B4FC7D
:102510000021204611F002FD21202870A0E780460E
:102520005946104614F048F804463146204611F04A
:10253000A3FC3946204611F0F1FC40F67901D8F8A9
:10254000180014F039F804462749204611F094FC8D
:102550000021204611F0E2FC2220287080E780460E
:1025600040F67901104614F027F80446314620461B
:1025700011F082FC3946204611F0D0FC40F6720181
:10258000D8F8180014F018F804461749204611F03E
:1025900073FC0021204611F0C1FC242028705FE765
:1025A000814640F67201104614F006F88046314626
:1025B000404611F061FC3946404611F0AFFC21461F
:1025C000D9F8180013F0F8FF04460749204611F027
:1025D00053FC0021204611F0A1FC192028703FE790
:1025E0008501002090010020FFFFBF00F0B52DED18
:1025F000028B83B0B0480178B04A9FEDB10AB14D6B
:1026000000260127A869192938D0DFEDAF0A1A2959
:102610007ED0AE4A1B297CD01C292BD1A97B40F649
:1026200078031C1D022975D0A97B012922D1D188EC
:1026300000EE101AB8EE400A80EE208A194613F018
:10264000BBFFA3A111F045FC2146A86913F0B4FF1C
:10265000044618EE100A24F02BFD41EC100BA0A14B
:1026600053EC102B01A8FDF735FE01A9204611F00F
:1026700030FCAE7303B0BDEC028BF0BDE97A40F6DE
:102680006F031C1D012927D0E97A0229F2D1D2F863
:10269000801000EE901AF8EE600A80EE808A1946EB
:1026A00013F08AFF90A111F014FC2146A86913F0E1
:1026B00083FF044618EE100A24F0FAFC41EC100BDC
:1026C0008DA153EC102B01A8FDF704FE01A92046B3
:1026D00011F0FFFBEF72CDE7D16F00EE901AF8EE2C
:1026E000600A80EE808A194613F066FF84A111F01B
:1026F000F0FB2146A86913F05FFF044618EE100AAC
:1027000024F0D6FC41EC100B7BA153EC102B02E023
:102710000AE05CE0ACE001A8FDF7DCFD01A9204681
:1027200011F0D7FBEE72A5E7297B4FF407631C1D60
:10273000022927D0297B01299CD1D2F8881000EEEC
:10274000101AB8EE400A80EE208A194613F034FFC2
:102750006FA111F0BEFB2146A86913F02DFF0446BE
:1027600018EE100A24F0A4FC41EC100B5CA153EC11
:10277000102B01A8FDF7AEFD01A9204611F0A9FB21
:102780002E7377E7D2F88C1000EE101AB8EE400ADC
:1027900080EE208A194613F00FFF61A111F099FB1A
:1027A0002146A86913F008FF044618EE100A24F029
:1027B0007FFC41EC100B4AA153EC102B01A8FDF754
:1027C00089FD01A9204611F084FB2F7352E7697B34
:1027D00040F677031C1D022926D0697B0129A2D16E
:1027E000118800EE901AF8EE600A80EE808A194691
:1027F00013F0E2FE4EA111F06CFB2146A86913F024
:10280000DBFE044618EE100A24F052FC41EC100BDB
:1028100039A153EC102B01A8FDF75CFD01A920465E
:1028200011F057FB6E7325E7518800EE901AF8EE11
:10283000600A80EE808A194613F0BEFE40A111F0B6
:1028400048FB2146A86913F0B7FE044618EE100AAB
:1028500024F02EFC41EC100B27A153EC102B01A807
:10286000FDF738FD01A9204611F033FB6F7301E736
:10287000118900EE101AB8EE400A80EE208A19463F
:1028800013F09AFE32A111F024FB2146A86913F03F
:1028900093FE044618EE100A24F00AFC41EC100BDB
:1028A0000FA153EC102B01A8FDF714FD01A9204640
:1028B00011F00FFBAF73DDE685010020080D00204D
:1028C0000000C8429001002000007A4420860020C9
:1028D000E688AAE6ADA2E794B5E6B581310000002E
:1028E000252E336600000000E8BE93E587BAE79422
:1028F000B5E58E8B32000000252E32660000000008
:10290000E8BE93E587BAE794B5E58E8B3100000009
:10291000E99990E588B6E794B5E6B5813100000005
:10292000E99990E588B6E794B5E6B58132000000F4
:10293000E688AAE6ADA2E794B5E58E8B31000000EB
:10294000E688AAE6ADA2E794B5E58E8B32000000DA
:10295000E688AAE6ADA2E794B5E6B58132000000AC
:10296000F0B52DED028B83B0AF480178AF4A9FEDF3
:10297000B00AB04D01260227A869192938D0DFED29
:10298000AE0A1A297ED0AD4A1B297CD01C292BD136
:10299000A97B40F678031C1D002975D0A97B01296D
:1029A00022D1518900EE101AB8EE400A80EE208A3A
:1029B000194613F001FEA2A111F08BFA2146A86975
:1029C00013F0FAFD044618EE100A24F071FB41ECF6
:1029D000100B9FA153EC102B01A8FDF77BFC01A964
:1029E000204611F076FAAF7303B0BDEC028BF0BD58
:1029F000E97A40F66F031C1D39B3E97A0129F3D156
:102A0000D2F8841000EE901AF8EE600A80EE808A08
:102A1000194613F0D1FD90A111F05BFA2146A86987
:102A200013F0CAFD044618EE100A24F041FB41ECF5
:102A3000100B8DA153EC102B01A8FDF74BFC01A945
:102A4000204611F046FAEF72CEE7D2F8801000EE81
:102A5000901AF8EE600A80EE808A194613F0ACFDF9
:102A600083A111F036FA2146A86913F0A5FD0446AA
:102A700018EE100A24F01CFB41EC100B7AA153EC69
:102A8000102B02E00AE05BE0AAE001A8FDF722FCBF
:102A900001A9204611F01DFAEE72A5E7297B4FF43B
:102AA00007631C1D39B3297B01299DD1D2F89010F1
:102AB00000EE101AB8EE400A80EE208A194613F094
:102AC0007BFD6FA111F005FA2146A86913F074FD92
:102AD000044618EE100A24F0EBFA41EC100B5CA14E
:102AE00053EC102B01A8FDF7F5FB01A9204611F0CE
:102AF000F0F92F7378E7D2F88C1000EE101AB8EEC8
:102B0000400A80EE208A194613F056FD60A111F0AC
:102B1000E0F92146A86913F04FFD044618EE100AAB
:102B200024F0C6FA41EC100B49A153EC102B01A87C
:102B3000FDF7D0FB01A9204611F0CBF92E7353E726
:102B4000697B40F677031C1D31B3697B0129A4D151
:102B5000918800EE901AF8EE600A80EE808A19469D
:102B600013F02AFD4EA111F0B4F92146A86913F023
:102B700023FD044618EE100A24F09AFA41EC100BDB
:102B800039A153EC102B01A8FDF7A4FB01A92046A5
:102B900011F09FF96F7327E7518800EE901AF8EE55
:102BA000600A80EE808A194613F006FD40A111F0FC
:102BB00090F92146A86913F0FFFC044618EE100AAC
:102BC00024F076FA41EC100B27A153EC102B01A84E
:102BD000FDF780FB01A9204611F07BF96E7303E736
:102BE000118900EE101AB8EE400A80EE208A1946CC
:102BF00013F0E2FC32A111F06CF92146A86913F040
:102C0000DBFC044618EE100A24F052FA41EC100BDB
:102C10000FA153EC102B01A8FDF75CFB01A9204686
:102C200011F057F9AE73DFE685010020080D002092
:102C30000000C8429001002000007A442086002055
:102C4000E688AAE6ADA2E794B5E6B58133000000B8
:102C5000252E336600000000E8BE93E587BAE794AE
:102C6000B5E58E8B33000000252E32660000000093
:102C7000E8BE93E587BAE794B5E58E8B3200000095
:102C8000E99990E588B6E794B5E6B5813300000090
:102C9000E99990E588B6E794B5E6B5813200000081
:102CA000E688AAE6ADA2E794B5E58E8B3300000076
:102CB000E688AAE6ADA2E794B5E58E8B3200000067
:102CC000E688AAE6ADA2E794B5E6B5813200000039
:102CD0002DE9F05F7D4D29787D48193940F66F0761
:102CE00082696FF070464FF4076840F6770940F646
:102CF000780A40F6710B40F679040C2926D2DFE8F9
:102D000001F0062747662525252585A425C33946D4
:102D10000746104613F050FC04463146204611F099
:102D2000ABF86FF07F41204611F0F8F840F67201E1
:102D3000B86913F041FC04466649204611F09CF83E
:102D40000021204611F0EAF824202870BDE8F09F09
:102D500041468046104613F02FFC0446314620467B
:102D600011F08AF86FF07F41204611F0D7F839460C
:102D7000D8F8180013F020FC04465649204611F0FC
:102D80007BF80021204611F0C9F819202870DDE7F2
:102D900007464946104613F00FFC044631462046CC
:102DA00011F06AF86FF07F41204611F0B7F8414604
:102DB000B86913F001FC04464649204611F05CF85E
:102DC0000021204611F0AAF81A202870BEE7074615
:102DD0005146104613F0F0FB04463146204611F0F0
:102DE0004BF86FF07F41204611F098F84946B869DA
:102DF00013F0E2FB04463749204611F03DF800216C
:102E0000204611F08BF81B2028709FE70746594693
:102E1000104613F0D1FB04463146204611F02CF841
:102E20006FF07F41204611F079F85146B86913F0F0
:102E3000C3FB04462749204611F01EF80021204616
:102E400011F06CF81C20287080E7074621461046D8
:102E500013F0B2FB04463146204611F00DF86FF036
:102E60007F41204611F05AF85946B86913F0A4FB87
:102E700004461849204610F0FFFF0021204611F0BB
:102E80004DF82120287061E7804640F67201104617
:102E900013F092FB07463146384610F0EDFF6FF015
:102EA0007F41384611F03AF82146D8F8180013F05F
:102EB00083FB04460749204610F0DEFF0021204630
:102EC00011F02CF82220287040E700008501002036
:102ED00090010020FFFFBF002DE9F04F2DED048B86
:102EE00083B0F948406E00EE100AB8EE400ADFEDFC
:102EF000F70A80EE208AF448806E00EE100AB8EEE1
:102F0000400ADFEDF30AC0EE208AEF48C06E00EE03
:102F1000100AB8EE400ADFEDEE0A80EE209AEA4889
:102F2000006F00EE100AB8EE400ADFEDE80AC0EECE
:102F3000209AE8480178EB4819390124E64DE74E1C
:102F4000E74F806940F66F0940F6730A4FF4076B4C
:102F500040F67908102932D2DFE801F00890FDFC34
:102F600036BAFBFAF9F8F7F6F5F4F3F24946DD4F15
:102F700013F022FB06466FF07041304610F07CFFE4
:102F80006FF07F41304610F0C9FF5146B86913F029
:102F900013FB0646D449304610F06EFF0021304640
:102FA00010F0BCFF0020D14A002102E01154401C67
:102FB000C0B20528FAD3C7491D2008702C7003B091
:102FC000BDEC048BBDE8F08F5146DFF8188313F099
:102FD000F3FA07466FF07041384610F04DFF6FF07E
:102FE0007F41384610F09AFF98F80B0040B198F8EE
:102FF0000B00012808D098F80B00022809D00CE03B
:10300000B148C16F416008E0AF48D0F8801041601E
:1030100003E0AD48D0F884104160AB48406800EE52
:10302000100AF8EE400A9FEDA91A80EE810A10EE10
:10303000100A24F03DF841EC100BADA153EC102B1D
:1030400001A8FDF747F901A9384610F042FF4946AB
:10305000D8F8180013F0B0FA0746A349384610F024
:103060000BFF0021384610F059FF9A4919200870CB
:103070002C700020307014F029FCA0E75946994DBF
:1030800013F09AFA04466FF07041204610F0F4FEF7
:103090006FF07F41204610F041FF0020934900224D
:1030A00002E00A54401CC0B20528FAD340F674016D
:1030B000A86913F081FA04468B49204610F0DCFE23
:1030C0000021204610F02AFF82491E20087076E772
:1030D00040F67401DFF80C8213F06EFA07466FF0C9
:1030E0007041384610F0C8FE6FF07F41384610F04E
:1030F00015FF98F80C0040B198F80C00012809D091
:1031000098F80C0002280AD00DE06F48D0F888101B
:10311000816008E06C48D0F88C10816003E06A4858
:10312000D0F8901081606848826841F288318A4204
:1031300000D98160806800EE100AF8EE400A0BE0CA
:10314000FAE195E107E15DE0A7E2CAE166E12BE281
:10315000C5E254E2D4E02AE09FED5D1A80EE810AD8
:1031600010EE100A23F0A4FF41EC100B62A153EC07
:10317000102B01A8FDF7AEF801A9384610F0A9FE02
:103180005946D8F8180013F017FA0746564938463A
:1031900010F072FE0021384610F0C0FE4D491A2092
:1031A00008702C700020307014F090FB07E740F698
:1031B00077014C4D13F000FA04466FF07041204641
:1031C00010F05AFE6FF07F41204610F0A7FE00205D
:1031D000464A002102E01154401CC0B20528FAD32F
:1031E00040F67B01A86913F0E7F904463E49204602
:1031F00010F042FE0021204610F090FE35492520B7
:103200000870DCE640F67B01DFF8D89013F0D4F9C3
:1032100080466FF07041404610F02EFE6FF07F4107
:10322000404610F07BFE99F80D0040B199F80D0072
:1032300001280ED099F80D00022814D01CE038881F
:10324000DFED220A00EE100AB8EE400A80EE208A76
:1032500012E07888DFED1D0A00EE100AB8EE400A91
:1032600080EE208A08E0B888DFED180A00EE100A28
:10327000B8EE400A80EE208A18EE100A23F018FFFC
:1032800041EC100B1AA153EC102B01A8FDF722F80A
:1032900001A9404610F01DFE40F67701D9F818004C
:1032A00013F08AF907461049384610F0E5FD002171
:1032B000384610F033FE07491B2008702C700020A0
:1032C000307014F003FB7AE6080D00200000C842BD
:1032D00000007A44850100203401002035010020DF
:1032E0002086002090010020FFFFBF007C0100200D
:1032F000252E326600000000252E336600000000F7
:1033000040F67801FE4D13F057F904466FF0704116
:10331000204610F0B1FD6FF07F41204610F0FEFD19
:103320000020F84A002102E01154401CC0B20528D8
:10333000FAD340F67C01A86913F03EF90446F2493D
:10334000204610F099FD0021204610F0E7FDEF49DE
:103350002620087033E640F67C01DFF8A49313F0D2
:103360002BF980466FF07041404610F085FD6FF0FC
:103370007F41404610F0D2FD99F80E0040B199F817
:103380000E0001280ED099F80E00022814D01CE07F
:10339000F8885FED310A00EE100AB8EE400AC0EE80
:1033A000208A12E038895FED360A00EE100AB8EE86
:1033B000400AC0EE208A08E078895FED3B0A00EE03
:1033C000100AB8EE400AC0EE208A18EE900A23F0E8
:1033D0006FFE41EC100B53EC102BAFF2E40101A88F
:1033E000FCF778FF01A9404610F073FD40F6780124
:1033F000D9F8180013F0E0F80746C349384610F032
:103400003BFD0021384610F089FDC0491C200870A2
:103410002C700020307014F059FAD0E54146B84DB8
:1034200013F0CAF804466FF07041204610F024FDF6
:103430006FF07F41204610F071FD0020B14900225D
:1034400002E00A54401CC0B20528FAD340F67D01C0
:10345000A86913F0B1F80446AB49204610F00CFD02
:103460000021204610F05AFDA84927200870A6E543
:1034700040F67D01DFF8889213F09EF807466FF062
:103480007041384610F0F8FC6FF07F41384610F07C
:1034900045FD19EE100A23F00BFE41EC100B53EC26
:1034A000102BAFF2AC1101A8FCF714FF01A93846AC
:1034B00010F00FFD4146D9F8180013F07DF80746CB
:1034C0009149384610F0D8FC0021384610F026FD0E
:1034D0008E49222008702C700020307014F0F6F90C
:1034E0006DE540F67A01864D13F066F804466FF0FC
:1034F0007041204610F0C0FC6FF07F41204610F074
:103500000DFD00207F4A002102E01154401CC0B292
:103510000528FAD340F67E01A86913F04DF8044659
:103520007949204610F0A8FC0021204610F0F6FC56
:1035300076492820087042E540F67E01DFF8C08118
:1035400013F03AF807466FF07041384610F094FCDB
:103550006FF07F41384610F0E1FC19EE900A23F03D
:10356000A7FD41EC100B53EC102BAFF27C2101A80E
:10357000FCF7B0FE01A9384610F0ABFC40F67A012A
:10358000D8F8180013F018F807465F49384610F0CD
:1035900073FC0021384610F0C1FC5C492320087000
:1035A0002C70002030700AE540F67101544D13F084
:1035B00003F804466FF07041204610F05DFC6FF098
:1035C0007F41204610F0AAFC00204E4A002102E074
:1035D0001154401CC0B20528FAD340F67501A86901
:1035E00012F0EAFF04464849204610F045FC00214D
:1035F000204610F093FC45491F200870DFE440F698
:103600007501DFF8FC8012F0D7FF07466FF07041BC
:10361000384610F031FC6FF07F41384610F07EFCE8
:103620003B48D0F89C10016101694EF6602291423E
:1036300001D900210161006900EE100AF8EE400A8C
:103640001FEDDD1A80EE810A10EE100A23F030FD26
:1036500041EC100B53EC102BAFF2643101A8FCF7D6
:1036600039FE01A9384610F034FC40F67101D8F853
:10367000180012F0A1FF07462349384610F0FCFB62
:103680000021384610F04AFC2049212008702C7097
:103690000020307014F01AF991E440F67201184DD0
:1036A00012F08AFF04466FF07041204610F0E4FBF0
:1036B0006FF07F41204610F031FC40F67601A8699A
:1036C00012F07AFF04461049204610F0D5FB002185
:1036D000204610F023FC0D49202008706FE440F6CE
:1036E0007601DFF81C8012F067FF07466FF070412B
:1036F000384610F0C1FB6FF07F4138460AE0000009
:10370000900100207C010020FFFFBF008501002008
:10371000080D002010F002FC40F67201D8F81800E5
:1037200012F04AFF07460849384610F0A5FB002171
:10373000384610F0F3FB0549242008702C70002057
:10374000307014F0C3F83AE4FFFFBF008501002099
:1037500070B5134D69792846124E806940F699027A
:1037600001290FD0114612F027FF04466FF0704177
:10377000204610F081FB3146204610F0CFFB2F2071
:10378000287070BD114612F017FF044631462046DE
:1037900010F072FB2046BDE87040002110F0BEBB67
:1037A000CC010020FFFFBF002DE9FF470446006861
:1037B00010B113F023FE68B10022314850F82210F6
:1037C00060680A2841D007DCF0B306280DD007282E
:1037D00054D106E00122F0E712280AD019284DD171
:1037E00037E0204614F0EAFF48E0204616F074F96E
:1037F00044E0206803F0F4FA0290B0F9548090F8A5
:103800005650476C466B02A803F034FB206800F06A
:1038100039F88146684612F0A7FEBDF8001009EBA2
:1038200005000844ADF80000246A304604F0BEFEEE
:10383000022004F0FBFE384604F0AEFE4246694624
:10384000204603F0A1FE19E007E0204616F030FC08
:1038500014E0886904B0BDE8F087206813F092FA9C
:10386000206803F0BDFA0390B0F90610B0F9022009
:10387000891A491CC16703A803F0FCFA0020E9E794
:103880006402040838B503F0ABFA0090C46F6846D0
:1038900003F0F0FA204638BD044A03491160044998
:1038A000CA69C8611046704738030020000700202D
:1038B0000407002000B589B024216846FCF73FFFCB
:1038C000192001900348006880684168684688476D
:1038D00009B000BD0007002070B5FF23FF220025BE
:1038E00018E0445D6240002402F0010603F0010C80
:1038F0005B085208BCF1000F01D042F080021EB1FB
:1039000083F0A00382F00102641CE4B2082CEBD324
:103910006D1CEDB28D42E4D342EA032070BD00007D
:103920001CB5164801210170154A19201070154860
:10393000002404701448C26F4260D0F8882082606E
:10394000D0F89C200261114801707021682010F0AD
:103950001EFF4FF480510E4802F0F8FA09F0FAF811
:1039600012F01EFE034600940A4A29210A480194D7
:1039700003F02EFC094988611CBD000036010020BF
:10398000850100209C000020080D00209D000020E3
:10399000000C024041250208E07902089001002055
:1039A0001CB50E48002404700D4804700D480470C6
:1039B0007021682010F0EBFE4FF480510A4802F0AD
:1039C000C5FA12F0EDFD03460094084A08210848A4
:1039D000019403F0FDFB074908601CBD360100207F
:1039E0009D0000209C000020000C02405D40020869
:1039F0005C7E0208AC0100207CB50E4C4720A07113
:103A00000320A0700C4908700025E57122F014FC19
:103A10000A49012008700A48057012F0C1FD0346EA
:103A20000095084A23210848019503F0D1FB606204
:103A30007CBD0000340100209D0000209F0000207C
:103A40009C000020A1070208C07302081CB50F49A2
:103A5000052008700E48002404700E480470702180
:103A6000682010F094FE4FF480510B4802F06EFA7B
:103A700012F096FD03460094084A1F21084801945D
:103A800003F0A6FB074908601CBD000036010020BA
:103A9000850100209C000020000C0240C543020864
:103AA0003C7F0208C00100201CB5084906200870B0
:103AB00012F076FD0346002000900190044A012197
:103AC000044803F085FB044948601CBD3601002012
:103AD000194D0208A0820208C40100201CB5164935
:103AE000022008701549087015490920087015480A
:103AF000D0F898104160D0F8A010816012480024DE
:103B0000047012490320087009F024F8702168201D
:103B100010F03DFE4FF480510D4802F017FA12F0FC
:103B20003FFD034600940B4A13210B48019403F018
:103B30004FFB0A4948601CBD360100209D00002053
:103B400085010020080D00209C000020830100203A
:103B5000000C02407D000208AC7102082C0100201C
:103B60001CB5154904200870144908701449172021
:103B700008701448D0F894100161134800240470B0
:103B800008F0E8FF1149022008707021682010F049
:103B9000FEFD4FF480510E4802F0D8F912F000FDFE
:103BA000034600940B4A15210B48019403F010FBC7
:103BB0000A4948601CBD0000360100209D0000201D
:103BC00085010020080D00209C00002083010020BA
:103BD000000C0240FD520208947702088801002080
:103BE0001CB512F0DDFC002403460094074A1121A5
:103BF0000748019403F0ECFA06498861064A1470FC
:103C0000064B07221A702F220A701CBD994D02081C
:103C1000886F0308CC0100209C00002036010020A2
:103C20001CB502208DF8050001208DF8040000204D
:103C30008DF806001C2000906946024802F032F917
:103C40001CBD00000010024070B50546244E042142
:103C5000304602F07BF90821304602F079F900BFC6
:103C600000BF00BF00BF0421304602F071F900BF61
:103C70000821304602F06CF90421304602F066F962
:103C8000002420E0072C0DD9280404D5102130464B
:103C900002F05EF903E01021304602F057F96804A3
:103CA000050C03E01021304602F050F9082130469F
:103CB00002F04CF900BF00BF00BF0821304602F0FF
:103CC00047F9641CE4B2182CDCD30421304602F01E
:103CD0003FF93046BDE87040082102F039B90000D4
:103CE0000010024008B538208DF8000003208DF840
:103CF00001008DF8020001208DF8030068460BF0EA
:103D00007DF908BD01480068704700008403002069
:103D100010B50549054800F00DF80548016841F067
:103D20000201016010BD00002080001010640240FC
:103D300038000020074A904201D2074801E00548B8
:103D40001038064A8B0001EA020101D5C1607047B4
:103D50008160704710640240006002407D0F7D0F5B
:103D600021B1016841F0010101607047016821F053
:103D70000101016070470B0609D522B1436943F088
:103D80008003436103E0436923F08003436180299A
:103D900005D001F01E011AB102680A4302607047A3
:103DA00002688A430260704730B50368124A1340C4
:103DB000CC680A682243D1E905452C432243CC69EB
:103DC00022430C6A22434C6A22438C6A22434C6B86
:103DD00022438C6B22431A430260426922F007039C
:103DE000D1E90B2422431A4342610A6942604A68BE
:103DF00082608968C16030BD3F801CF0F8B505461F
:103E0000006802F0EDFF0090448ED0F888606846AC
:103E100003F030F806B1012604F00104286813F01D
:103E2000EDFA0EB1002006E00CB1012003E008B16C
:103E3000022000E003201B4951F82010686858B3A5
:103E400002280CD0052802D0122828D103E02846E9
:103E500014F0E0FC23E0284616F0BFFD1FE06A697D
:103E6000E8694FF0FF33801AA0F1080203EB620407
:103E7000421CAB69001B4510A3EB6206C86904F045
:103E80008BFB06E03219311B284603F02BFD641E24
:103E90006D1C002CF6DA02E0286812F073FF002097
:103EA000F8BD0000C4020408044A03491160044933
:103EB0000A6B086310467047880300204007002003
:103EC0004407002038B50D46002402F089FF009019
:103ED000C06B294603F066F80546684602F0CAFF43
:103EE0001DB1284602F07CFF0446204638BD7047CD
:103EF00030B504464FF47A7502E0284600F006F823
:103F00002300A4F1010084B2F7D130BD00220BE000
:103F1000042100BF00BF00BF00BF00BF491E09044D
:103F2000090CF6D1521C92B28242F1D370470000C4
:103F300010B52DED028B24490A78244CB2EE048A88
:103F4000022AE0681FD00978032939D1204991ED70
:103F5000000A20EE080ABDEEC00A10EE101A09B2DF
:103F600002F0CEF81B4890ED000A20EE080ABDEEE4
:103F7000C00A10EE100A01B22069BDEC028BBDE848
:103F8000104002F0BDB8144991ED000A20EE080A75
:103F9000BDEEC00A10EE101A09B202F0B1F80F48D7
:103FA00090ED000A20EE080ABDEEC00A10EE100ADD
:103FB00001B22069BDEC028BBDE8104002F0A0B850
:103FC000BDEC028B10BD000083010020AC0100207D
:103FD0002800002030000020240000202C000020B9
:103FE00010B5044621F00CFFA02021F0DBFE21F0EB
:103FF00037FF68B9204621F0D5FE21F031FF38B9EE
:1040000021F0FEFEA12021F0CDFE21F029FF18B104
:1040100021F012FF002010BD21F0A2FE034C207001
:1040200021F086FE21F008FF207810BD92000020CC
:1040300070B50120FFF7D4FFFE4C20600120FFF790
:10404000CFFF20602068000220600220FFF7C8FF39
:104050002168084420602068000220600320FFF7E8
:10406000BFFF21680844206020680002206004200F
:10407000FFF7B6FF2168084420600520FFF7B0FF76
:10408000ED4D28602868000228600620FFF7A8FF91
:104090002968084428602868000228600720FFF784
:1040A0009FFF2968084428602868000228600820CB
:1040B000FFF796FF2968084428600920FFF790FF62
:1040C00060606068000260600A20FFF789FF616835
:1040D000084460606068000260600B20FFF780FFAA
:1040E0006168084460606068000260600C20FFF74F
:1040F00077FF6168084460600D20FFF771FF68601A
:104100006868000268600E20FFF76AFF696808446B
:1041100068606868000268600F20FFF761FF6968E7
:10412000084468606868000268601020FFF758FF64
:104130006968084468601120FFF752FFA060A0681A
:104140000002A0601220FFF74BFFA1680844A060A6
:10415000A0680002A0601320FFF742FFA168084496
:10416000A060A0680002A0601420FFF739FFA168DA
:104170000844A0601520FFF733FFA860A86800027C
:10418000A8601620FFF72CFFA9680844A860A8685B
:104190000002A8601720FFF723FFA9680844A86061
:1041A000A8680002A8601820FFF71AFFA968084451
:1041B000A8601920FFF714FFE060E0680002E060EB
:1041C0001A20FFF70DFFE1680844E060E068000294
:1041D000E0601B20FFF704FFE1680844E060E0684E
:1041E0000002E0601C20FFF7FBFEE1680844E0608D
:1041F0001D20FFF7F5FEE860E8680002E8601E2079
:10420000FFF7EEFEE9680844E860E8680002E8604D
:104210001F20FFF7E5FEE9680844E860E86800024F
:10422000E8602020FFF7DCFEE9680844E860212010
:10423000FFF7D6FE20612069000220612220FFF7EF
:10424000CFFE2169084420612069000220612320FB
:10425000FFF7C6FE21690844206120690002206141
:104260002420FFF7BDFE2169084420612520FFF7C7
:10427000B7FE28612869000228612620FFF7B0FEFA
:104280002969084428612869000228612720FFF76E
:10429000A7FE2969084428612869000228612820AE
:1042A000FFF79EFE2969084428612920FFF798FE40
:1042B00060616069000260612A20FFF791FE616918
:1042C000084460616069000260612B20FFF788FE8E
:1042D0006169084460616069000260612C20FFF739
:1042E0007FFE6169084460612D20FFF779FE6861F7
:1042F0006869000268612E20FFF772FE6969084450
:1043000068616869000268612F20FFF769FE6969CA
:10431000084468616869000268613020FFF760FE48
:10432000696908446861AB20FFF75AFEE062E06A01
:104330000002E062AC20FFF753FEE16A0844E0624D
:10434000E06A0002E062AD20FFF74AFEE16A08443D
:10435000E062E06A0002E062AE20FFF741FEE16A3F
:104360000844E062AF20FFF73BFEE862E86A000223
:10437000E862B020FFF734FEE96A0844E862E86AC0
:104380000002E862B120FFF72BFEE96A0844E86208
:10439000E86A0002E862B220FFF722FEE96A0844F8
:1043A000E8623120FFF71CFEA061A0690002A06155
:1043B0003220FFF715FEA1690844A061A069000240
:1043C000A0613320FFF70CFEA1690844A061A06939
:1043D0000002A0613420FFF703FEA1690844A06138
:1043E0003520FFF7FDFDA861A8690002A86136200D
:1043F000FFF7F6FDA9690844A861A8690002A86151
:104400003720FFF7EDFDA9690844A861A8690002FB
:10441000A8613820FFF7E4FDA9690844A8613920A4
:10442000FFF7DEFDE061E0690002E0613A20FFF79E
:10443000D7FD03E0A00C0020D40C0020E169084463
:10444000E061E0690002E0613B20FFF7C9FDE1693E
:104450000844E061E0690002E0613C20FFF7C0FD34
:10446000E1690844E0613D20FFF7BAFDE861E869D1
:104470000002E8613E20FFF7B3FDE9690844E86106
:10448000E8690002E8613F20FFF7AAFDE9690844F6
:10449000E861E8690002E8614020FFF7A1FDE969F1
:1044A0000844E8614120FFF79BFD2062206A00027A
:1044B00020624220FFF794FD216A08442062206AAE
:1044C000000220624320FFF78BFD216A084420622E
:1044D000206A000220624420FFF782FD216A08441E
:1044E00020624520FFF77CFD2862286A00022862CE
:1044F0004620FFF775FD296A08442862286A0002F1
:1045000028624720FFF76CFD296A08442862286A60
:10451000000228624820FFF763FD296A08442862E8
:104520004920FFF75DFD6062606A000260624A2018
:10453000FFF756FD616A08446062606A00026062CB
:104540004B20FFF74DFD616A08446062606A00021B
:1045500060624C20FFF744FD616A084460624D20B0
:10456000FFF73EFD6862686A000268624E20FFF74E
:1045700037FD696A08446862686A000268624F2011
:10458000FFF72EFD696A08446862686A0002686283
:104590005020FFF725FD696A084468625120FFF743
:1045A0001FFDA062A06A0002A0625220FFF718FD62
:1045B000A16A0844A062A06A0002A0625320FFF72B
:1045C0000FFDA16A0844A062A06A0002A062542004
:1045D000FFF706FDA16A0844A0625520FFF700FD21
:1045E000A862A86A0002A8625620FFF7F9FCA96A2F
:1045F0000844A862A86A0002A8625720FFF7F0FCEE
:10460000A96A0844A862A86A0002A8625820FFF7B5
:10461000E7FCA96A0844A862B420FFF7E1FC206324
:10462000206B00022063B520FFF7DAFC216B084401
:104630002063206B00022063B620FFF7D1FC216BC2
:1046400008442063206B00022063B720FFF7C8FCFA
:10465000216B08442063B820FFF7C2FC2863286B55
:1046600000022863B920FFF7BBFC296B08442863CC
:10467000286B00022863BA20FFF7B2FC296B0844BC
:104680002863286B00022863BB20FFF7A9FC296B75
:10469000084428635920FFF7A3FCF54C20705A20EA
:1046A000FFF79EFC60705B20FFF79AFCA0705C2017
:1046B000FFF796FCE0705D20FFF792FC20715E2012
:1046C000FFF78EFC60716020FFF78AFCE9490870F3
:1046D0007A20FFF785FCE84908707B20FFF780FC13
:1046E000E64908707820FFF77BFCE54908707920DF
:1046F000FFF776FCE34908706120FFF771FCE2499F
:1047000008707C20FFF76CFCE04908807D20FFF7F3
:1047100067FCDF4908807E20FFF762FCDD490880E6
:104720007F20FFF75DFCDC4908808020FFF758FC04
:10473000DA4908708120FFF753FCD94908708220BC
:10474000FFF74EFCD74908708320FFF749FCD64994
:1047500008708420FFF744FCD44908708520FFF7D7
:104760003FFCD34908708620FFF73AFCD149087016
:104770008720FFF735FCD04908708820FFF730FC10
:10478000CE4908708920FFF72BFCCD4908708A209C
:10479000FFF726FCCB4908708B20FFF721FCCA49A4
:1047A00008708C20FFF71CFCC8490A6860F3C71228
:1047B0000A608D20FFF714FCC5490880B320FFF77D
:1047C0000FFCC44908706220FFF70AFCC24C20604D
:1047D0002068000220606320FFF702FC2168084483
:1047E00020606420FFF7FCFB60606068000260608E
:1047F0006520FFF7F5FB6168084460606620FFF7FD
:10480000EFFBA060A0680002A0606720FFF7E8FB54
:10481000A1680844A0606820FFF7E2FBE060E06860
:104820000002E0606920FFF7DBFBE1680844E0601C
:104830006A20FFF7D5FB20612069000220616B2010
:10484000FFF7CEFB2169084420616C20FFF7C8FB0D
:1048500060616069000260616D20FFF7C1FB616902
:10486000084460616E20FFF7BBFB2066206E0002EB
:1048700020666F20FFF7B4FB216E0844206670208D
:10488000FFF7AEFBA066A06E0002A0667120FFF7E6
:10489000A7FBA16E0844A0667220FFF7A1FBE065AC
:1048A000E06D0002E0657320FFF79AFBE16D0844BC
:1048B000E0657420FFF794FB2062206A000220620A
:1048C0007520FFF78DFB216A084420627620FFF7F0
:1048D00087FB6062606A000260627720FFF780FBFE
:1048E000616A084460628E20FFF77AFB6064606C46
:1048F000000260648F20FFF773FB616C0844606402
:104900009020FFF76DFBA064A06C0002A0649120D2
:10491000FFF766FBA16C0844A0649220FFF760FBE0
:10492000E064E06C0002E0649320FFF759FBE16C67
:104930000844E0649420FFF753FB684D28802888E2
:10494000000228809520FFF74BFB29880844288027
:104950009620FFF745FB68806888000268809720F2
:10496000FFF73EFB6988084468809820FFF738FB12
:10497000A880A8880002A8809920FFF731FBA988A9
:104980000844A8809A20FFF72BFB2065206D0002C9
:1049900020659B20FFF724FB216D084420659C20A7
:1049A000FFF71EFB6065606D000260659D20FFF7EC
:1049B00017FB616D084460659E20FFF711FBA06541
:1049C000A06D0002A0659F20FFF70AFBA16D0844BF
:1049D000A065A4F138044FF0A000FFF701FBE880C8
:1049E000E8880002E880A120FFF7FAFAE988084485
:1049F000E880A220FFF7F4FA2881288900022881A4
:104A0000A320FFF7EDFA298908442881A420FFF7A5
:104A1000E7FA6881688900026881A520FFF7E0FA5B
:104A2000698908446881A620FFF7DAFA2C490870E2
:104A3000A720FFF7D5FA04F16C042063206B4FEA3E
:104A4000002020634FF0A800FFF7CAFA216B08444A
:104A50002063A920FFF7C4FA2060206800022060CC
:104A6000AA20FFF7BDFA21680844206070BD00004D
:104A7000DC000020BE0000203801002037010020AB
:104A8000450100208401002044010020DA010020BB
:104A9000DC010020DE010020E0010020CD0100202B
:104AA000CE010020CF010020D0010020D201002043
:104AB000D3010020D4010020D5010020D601002020
:104AC000D7010020D8010020D90100204400002097
:104AD0004801002046010020400D002020860020D3
:104AE0009001002070B505460E4621F0A5F900247E
:104AF00009E021F085F9A02021F054F921F0B0F966
:104B000018B1641CA4B2642CF3D3B4F57A7F0DD031
:104B1000E8B221F047F921F0A3F938B9304621F085
:104B200041F921F09DF908B921F086F9BDE87040FE
:104B300021F082B92DE9F041044694B0006800F0FC
:104B4000B7F908B1D94D01E0D84D2C35606815286A
:104B50001ED00CDC0B281FD004DC00287ED00528DA
:104B60007DD12EE10E287BD01228F9D141E1162803
:104B700006D0172808D0182808D01C28F0D109E042
:104B8000E86914B0BDE8F081286AFAE7686AF8E7D6
:104B9000A86AF6E76869F4E720680B901C200C907F
:104BA000206802F01DF90390016D0BA888470646A6
:104BB00003A802F05FF9022E0EDB95E807008DE8EE
:104BC0000700D4E904023346A16904F049FC2069D6
:104BD0008719A069801B2BE0286803F0DDFC2169A0
:104BE000E8690A18521E606902F07CFEA269E86951
:104BF000111A491C606902F075FE676920697F1C03
:104C0000394602F0B1FE3946A06902F0ADFE68688F
:104C100003F0C2FC20693946401C02F0A5FEA069E1
:104C20003946401E02F0A0FE2769A069BF1C801E05
:104C30008046286803F0B0FC42463946606902F0BD
:104C400051FE686803F0A8FC60694246401C394682
:104C500002F048FE686A02280FDD02E015E1AFE0CD
:104C600000E1A86803F098FC61696A6A881C8B18E7
:104C700001465B1E4246384627E0296AB14226DDDE
:104C80006069022E074600F1020801DB374401E0AB
:104C900007F10207206901DB304401E000F1020066
:104CA00022693B460A44A2F10102414602F024FF78
:104CB000022E02DBA069821B01E0A269921EA0699C
:104CC000E9693B46401A401C414602F015FF022E9E
:104CD00002DB6069064401E06669B61CE769286882
:104CE0007F1E03F059FC3A463146206902F09AFED5
:104CF0003A463146A06902F095FEE7696868BF1E32
:104D000003F04AFC20693A46401C314602F08AFE14
:104D1000A0693A46401E314602F084FEE869022846
:104D200002DC286A022823DDA86A022802DDE16984
:104D30000F1A01E0E769BF1EA86803F02DFCE969BE
:104D4000022909DD20693B46421800F1020C521E7F
:104D50003146604602F0D0FE286A022808DDA269CA
:104D6000E8693B46101A401C921E314602F0C4FE10
:104D7000286803F011FCD4E90620216902F0B2FD95
:104D8000686803F009FCA2692169E069521E491CA8
:104D9000401E02F0A7FDA86A022811DD2669A1695C
:104DA000E469B61C271AA1F102087F1CA41EA8689A
:104DB00003F0F2FB234642463946304602F09CFEA1
:104DC00072E0208A06B2ADF81460A08A01B2ADF894
:104DD0001610208B02B2ADF81820A08B03B2ADF8EC
:104DE0001A30D5E90304CDE90004304602F022FD73
:104DF0005AE0208A298B0844ADF81400A08AADF847
:104E00001600208B298B401AADF81800A08BADF846
:104E10001A00206801F0E4FF0390006FF0B1022057
:104E200003F004FC039991F87C00C0F3C00001EB8F
:104E30008000006C03F0B0FB0398406B03F0B6FBFE
:104E40000398006F01F0CCFF03990A90B1F95A2042
:104E500005A902F099FB0AA802F00CF803A802F0D9
:104E600009F821E0208AADF81400A08AADF81600F8
:104E7000208BADF81800A08BADF81A00A86803F0DD
:104E80008BFB05A802F05CFE0EE0206801F0A8FF95
:104E9000039030F85A1F41F00C01018003A801F083
:104EA000E9FF206811F06EFF00206AE65804002038
:104EB00038B5002450B101F093FF009090F87C00C9
:104EC000000700D50124684601F0D4FF204638BD14
:104ED00030B504468BB0006801F082FF009090F876
:104EE0007C10246A006FC1F3C00508B101F078FF9F
:104EF0000690E068029020690390A088401EADF8FB
:104F00001000E089ADF812002089401CADF81400B3
:104F1000608AADF81600BDF80800401CADF8080026
:104F2000BDF80A00401CADF80A00BDF80C00401E98
:104F3000ADF80C000098406B03F038FB009808AA0D
:104F400002A9B0F95A30069803F012FE009800EB5F
:104F50008500806B09F056F9009800EB8500006C25
:104F600009F088F908AB02AA04A9069810F0ECFE33
:104F7000684601F07FFF069810B106A801F07AFF9D
:104F80000BB0002030BD0000074A0649054B1160F8
:104F9000064A083BD16958601B68C2E906300846DA
:104FA000704700004C040020800700208407002088
:104FB00038B50D46040009D001F012FF00900566D7
:104FC000684601F057FF204611F0DFFC38BD2DE99F
:104FD000F34F85B000270C46B846059801F000FF56
:104FE0000090C06D0121856805982A689047824627
:104FF0002A6803210598904704902A6802210598A1
:10500000904703902A68002105989047064600982B
:1050100012F07AF88346009812F07DF881460098E5
:1050200090F83210890601D5B0F9588000F036F8B2
:1050300005460098C06E10B111F0DCFB07462580D4
:105040006780A4F804A0049AABEB020006EB080208
:10505000401E2A4420813A44E280039BA9EB0302CC
:10506000521E6281A4F80CA020827019E681401EB5
:105070006082684601F0FEFEB4F90C000190B4F9BC
:105080001000029002AA01A9059800F039F80198D1
:10509000A0810298208207B0BDE8F08F10B50146CC
:1050A000002091F83220920607D5B1F9540000286B
:1050B00003D1486B02F0C2FD801C10BD70B58AB0F0
:1050C0000C46054601F08CFE0990C06D866809A863
:1050D00001F0D0FE009534B1012C06D0022C0BD08B
:1050E000032C04D10AE0182000E01620019071681A
:1050F000684688470AB070BD1520F7E71720F5E726
:105100002DE9FC4790468946044601F069FE00906F
:10511000C16D056868468E6801F0ACFE32680021FA
:10512000204690470646204611F04EFA2F140446BA
:105130002DB227E001F054FE0190B0F90010B0F953
:105140000420B0F90230491B521BDB1BB34212D1C1
:1051500090F82800000607D5D8F8000088420ADB3E
:10516000491EC8F8001006E0D9F80000904202DCA1
:10517000521CC9F8002001A801F07CFE204611F065
:10518000B3FA0446002CD5D1BDE8FC874FF020428D
:1051900002EB800021B1016841F00101016070471C
:1051A0000168024A1140016070470000FEFF0F00D5
:1051B00030B5D0E901121143D0E903231A4311435A
:1051C00042690368114382691143C2691143026A4B
:1051D0001143426A1143826A1143C26A1143026B4E
:1051E00011434FF0204242F823108168082906D16C
:1051F000016802EB81010B6843F040030B60416BD7
:10520000D1E9003443EA04138C68CD68240244EAEF
:10521000054423430C6943EA04534C69896943EA12
:1052200004630B430168491C42F82130C16AB1F59F
:10523000804F07D000686FF0704102EB8000C0F82B
:10524000041130BD816B0068D1E9003443EA0413D6
:105250008C680D69240244EA055423434C6989692A
:1052600043EA046302EB80000B43C0F8043130BD15
:1052700070B5FE4C2068010E0120FFF733FC20685A
:10528000C0F307410220FFF72DFC2068C0F307217F
:105290000320FFF727FC2068C1B20420FFF722FC9F
:1052A000F34D2868010E0520FFF71CFC2868C0F3A9
:1052B00007410620FFF716FC2868C0F307210720E6
:1052C000FFF710FC2868C1B20820FFF70BFC6068EC
:1052D000010E0920FFF706FC6068C0F307410A20B1
:1052E000FFF700FC6068C0F307210B20FFF7FAFB13
:1052F0006068C1B20C20FFF7F5FB6868010E0D2055
:10530000FFF7F0FB6868C0F307410E20FFF7EAFBE8
:105310006868C0F307210F20FFF7E4FB6868C1B29B
:105320001020FFF7DFFBA068010E1120FFF7DAFB6A
:10533000A068C0F307411220FFF7D4FBA068C0F3B8
:1053400007211320FFF7CEFBA068C1B21420FFF79E
:10535000C9FBA868010E1520FFF7C4FBA868C0F3BD
:1053600007411620FFF7BEFBA868C0F307211720EE
:10537000FFF7B8FBA868C1B21820FFF7B3FBE068DD
:10538000010E1920FFF7AEFBE068C0F307411A20B9
:10539000FFF7A8FBE068C0F307211B20FFF7A2FB83
:1053A000E068C1B21C20FFF79DFBE868010E1D20DC
:1053B000FFF798FBE868C0F307411E20FFF792FB58
:1053C000E868C0F307211F20FFF78CFBE868C1B233
:1053D0002020FFF787FB2069010E2120FFF782FBC9
:1053E0002069C0F307412220FFF77CFB2069C0F34E
:1053F00007212320FFF776FB2069C1B22420FFF7A5
:1054000071FB2869010E2520FFF76CFB2869C0F3AA
:1054100007412620FFF766FB2869C0F307212720F4
:10542000FFF760FB2869C1B22820FFF75BFB6069CA
:10543000010E2920FFF756FB6069C0F307412A20BF
:10544000FFF750FB6069C0F307212B20FFF74AFBF1
:105450006069C1B22C20FFF745FB6869010E2D2061
:10546000FFF740FB6869C0F307412E20FFF73AFBC6
:105470006869C0F307212F20FFF734FB6869C1B2C8
:105480003020FFF72FFBE06A010EAB20FFF72AFB6D
:10549000E06AC0F30741AC20FFF724FBE06AC0F3E9
:1054A0000721AD20FFF71EFBE06AC1B2AE20FFF777
:1054B00019FBE86A010EAF20FFF714FBE86AC0F39E
:1054C0000741B020FFF70EFBE86AC0F30721B120C7
:1054D000FFF708FBE86AC1B2B220FFF703FBA0693F
:1054E000010E3120FFF7FEFAA069C0F30741322018
:1054F000FFF7F8FAA069C0F307213320FFF7F2FAAB
:10550000A069C1B23420FFF7EDFAA869010E352079
:10551000FFF7E8FAA869C0F307413620FFF7E2FA7F
:10552000A869C0F307213720FFF7DCFAA869C1B2E8
:105530003820FFF7D7FAE069010E3920FFF7D2FAD9
:10554000E069C0F307413A20FFF7CCFAE069C0F305
:1055500007213B20FFF7C6FAE069C1B23C20FFF704
:10556000C1FAE869010E3D20FFF7BCFAE869C0F313
:1055700007413E20FFF7B6FAE869C0F307213F2054
:10558000FFF7B0FAE869C1B24020FFF7ABFA206A32
:10559000010E4120FFF7A6FA206AC0F3074142201E
:1055A000FFF7A0FA206AC0F307214320FFF79AFA19
:1055B000206AC1B24420FFF795FA286A010E4520FF
:1055C000FFF790FA286AC0F307414620FFF78AFAEE
:1055D000286AC0F307214720FFF784FA286AC1B27E
:1055E0004820FFF77FFA606A010E4920FFF77AFA38
:1055F000606AC0F307414A20FFF774FA606AC0F39B
:1056000007214B20FFF76EFA606AC1B24C20FFF70A
:1056100069FA686A010E4D20FFF764FA686AC0F300
:1056200007414E20FFF75EFA686AC0F307214F205A
:10563000FFF758FA686AC1B25020FFF753FAA06A20
:10564000010E5120FFF74EFAA06AC0F30741522025
:10565000FFF748FAA06AC0F307215320FFF742FA88
:10566000A06AC1B25420FFF73DFA03E0A00C00206D
:10567000D40C0020A86A010E5520FFF733FAA86A5F
:10568000C0F307415620FFF72DFAA86AC0F307219F
:105690005720FFF727FAA86AC1B25820FFF722FA6D
:1056A000206B010EB420FFF71DFA206BC0F30741F9
:1056B000B520FFF717FA206BC0F30721B620FFF7DC
:1056C00011FA206BC1B2B720FFF70CFA286B010E5C
:1056D000B820FFF707FA286BC0F30741B920FFF79E
:1056E00001FA286BC0F30721BA20FFF7FBF9286BFA
:1056F000C1B2BB20FFF7F6F90F4C21785920FFF714
:10570000F1F961785A20FFF7EDF9A1785B20FFF7F6
:10571000E9F9E1785C20FFF7E5F921795D20FFF7F1
:10572000E1F961795E20FFF7DDF9A179BDE870400C
:10573000BC20FFF7D7B90000DC0000202DE9F043C2
:105740000446C56887B090468946002002F02CFFC9
:10575000064625B1287910B146F0020001E026F096
:10576000020002F021FF2069012558B1D4E902129C
:105770008DE82600039563882288046841464846E0
:10578000A0471EE0124F134B214638681B68427C2D
:10579000E068984730B9E088012801D0002001E096
:1057A0003868806BA288E388A1680095CDE9041071
:1057B000CDE902320195638822884146484608F0C7
:1057C00043F907B03046BDE8F04302F0EDBE0000FB
:1057D00010020020080200201CB50024019401AC36
:1057E000009400F0E7F81CBD2DE9FF4F83B081461F
:1057F00006988A46A0EB0A08109E00200090A2EBB3
:1058000009043568934654EA080018D02046FCF78E
:105810006AFB07464046FCF766FB87420BDA2046E8
:10582000444680464846D14682465846DDF818B080
:10583000069001200090002C07DD204606E007B00E
:105840004846BDE8F04F00F03BB96042A0420AD0A4
:105850004846D9466442C8F1000883464FF0FF37F6
:10586000DDF818A000E001275148B8F1000F11D071
:1058700004EBD4714FEA610B01DACBF1000B4C4819
:105880000068807E88B3002F02DA306820443060E0
:1058900000257BE000990029016821D0897E11B1A3
:1058A0000027804615E007B05A4649465046BDE8F5
:1058B000F04F08F02DBA28466D1C19F0BDFB38B921
:1058C000D8F8000009EB0701C06E426850469047C7
:1058D0007F1CA742EFDD6D1E356007B0BDE8F08F7D
:1058E0008A7E1AB10027804617E019E0C86E5A4632
:1058F0005146036807B04846BDE8F04F18472846B0
:105900006D1C19F099FB38B9D8F8001009EB0700A5
:10591000C96E4A68514690477F1CA742EFDDDAE71F
:1059200000250FE008FB05B090FBF4F101EB0A0045
:10593000009951B11E4A09EB05011268D26E5268F6
:1059400090476D1CA542EDDDC7E7194909EB05033A
:105950000968C96E4A6801461846F1E708FB05B0B8
:1059600090FBF4F101EB0A0001903068384430609C
:1059700019F062FB48B9009890B10D4809EB050198
:105980000068C06E4268019890476D1CA542E5DD35
:105990003068002F01DA20443060C01B30609CE783
:1059A000034909EB05000968C96E4A680199EBE7EC
:1059B000100200202DE9FF470F4640491646804659
:1059C00009680C981D460A7E012A1CD0A8EB060027
:1059D000791B50EA01031CD0A2F101091AF008FB5F
:1059E00000F58060824604F03BF900FB09F4504664
:1059F00004F03AF900FB09F1002C0CDAC4F5007050
:105A0000801240420AE00090324639464046FFF795
:105A1000EBFEBDE8FF8704F50074A012002904DA4C
:105A2000C1F5007189124C4202E001F500718C123F
:105A3000002804DD411C01EBD171491003E000EBAB
:105A4000D0714910401E00EBD0704210002C04DDD4
:105A5000601C00EBD070401003E004EBD4704010E9
:105A6000641E04EBD47308EB0104ADF800403C184D
:105A7000ADF80240A8EB02045B10B21AADF8044086
:105A8000ADF808203144FC1AEA1AADF80C1028448D
:105A9000ADF80A20ADF80E000023ADF806401A4616
:105AA0000421684600F07AF83946404614F092FE28
:105AB0002946304614F08EFEABE7000010020020AD
:105AC000064A13681A7E012A05D0521E02EBD272D2
:105AD000521000F005B8DA6E52681047100200202C
